:1000000012C02CC02BC02AC029C028C027C026C0BF
:1000100025C024C023C022C021C020C01FC01EC0D4
:100020001DC01CC01BC011241FBECFE5D4E0DEBF25
:10003000CDBF10E0A0E6B0E0E2E9F9E002C0059033
:100040000D92A239B107D9F720E0A2E9B0E001C0D2
:100050001D92A53AB207E1F755D199C4D1CF80FFDF
:1000600002C0C49A01C0C49881FF02C0C59A01C0F1
:10007000C59882FF02C0C29A01C0C29883FF02C025
:10008000C19A0895C1980895CF93C82FC09A8295B8
:100090008F70E5DFC098C09A8C2FE1DFC09885E8AB
:1000A0008A95F1F70000CF910895C398EDCFC39AD8
:1000B000EBCFCF93DF93EC018991882311F0F7DF29
:1000C000FBCFDF91CF91089590E4699F800D1124BB
:1000D0008068EBCF81E0E9DF8FE99FE00197F1F7DE
:1000E00000C00000089582E0E0DF8FE99FE0019703
:1000F000F1F700C000000895CF93BC9ABD9ABA9A58
:10010000B99AB89ABB9A8FE295E70197F1F700C0C8
:100110000000C398C098C3E0C09A83E0A0DFC098F5
:100120008FE097E20197F1F700C00000C150A1F7FE
:10013000C09A82E094DFC0988FEC97E00197F1F7C6
:1001400000C0000088E2B1DF88E0AFDF81E0ADDF12
:100150008FE99FE00197F1F700C0000086E0A5DF7E
:100160008CE0CF91A2CF379A86B1876086B93E9A4C
:10017000089587B1856087B9369A3699FECF84B1E4
:1001800095B108952091970030919800809160007A
:10019000909161002817390718F4929A9198089560
:1001A000AC014F5F5F4F2417350778F04F5F5F4F0B
:1001B0002417350750F04F5F5F4F2417350728F09D
:1001C0008217930710F4919A92980895809199005C
:1001D000813019F1823071F58091970090919800EB
:1001E00020916000309161002817390718F0929A29
:1001F00091980895A9014F5F5F4F84179507D0F03C
:100200004F5F5F4F84179507A8F02D5F3F4F821710
:10021000930780F0919A92980895209197003091D9
:10022000980080916000909161008217930710F40C
:10023000929A919A0895889A8F988A9A899A87B300
:10024000807487BBC69A0895909A80E28A95F1F7E8
:1002500090980895F9DF879905C010929800109240
:100260009700F9CF82E08A95F1F700C0809197005E
:1002700090919800879B09C0019690939800809375
:1002800097008AE18A95F1F7F0CF20919A0030919A
:100290009B00AC01421B530B4739510534F4A901B3
:1002A000481B590B473951052CF084E690E08093A8
:1002B000A00008952817390734F42DE630E0209384
:1002C000A00021E008C08217930744F426E730E03D
:1002D0002093A00022E02093990006C02EE730E092
:1002E0002093A00010929900209196002F5F2093F8
:1002F0009600243031F490939B0080939A001092E2
:100300009600089598DFF8DE2EDF2FEF83EC99E05A
:10031000215080409040E1F700C00000DBDEFF2468
:10032000F394CAE8D0E001EA10E023DF9093630081
:1003300080936200893C910538F1929A919A80915C
:100340009500813019F4C6DE1092950061E080E0DE
:10035000BBDE85E890E0ADDE809198008F938091C0
:1003600097008F93DF93CF931F930F9351D061E04A
:1003700086E0AADE81EA90E09CDE0F900F900F905D
:100380000F900F900F90D1CF883C910571F262DFF2
:100390009FE728E381E0915020408040E1F700C0D2
:1003A0000000F0929500809198008F9380919700C3
:1003B0008F93DF93CF931F930F932AD08BDE60E050
:1003C00080E082DE81EA90E074DE0F900F900F9063
:1003D0000F900F900F90809192008E3091F4B6990B
:1003E0000EC0809197009091980090936100809347
:1003F000600060E086E068DE8DE890E05ADE1092F2
:100400009200E4DE809192008F5F809392008DCF06
:10041000AEE0B0E0EDE0F2E091C20D891E8986E029
:100420008C831A8309838FEF9FE79E838D83AE01B0
:10043000475E5F4F6F89788DCE01019608D0EF81BE
:10044000F885E00FF11F10822E96E4E093C2ACE035
:10045000B0E0ECE2F2E064C27C016B018A01FC01D5
:1004600017821682838181FFB0C1CE0101964C01B3
:10047000F7019381F60193FD859193FF81916F01BF
:10048000882309F49EC1853239F493FD859193FF49
:1004900081916F01853221F4B70190E0B1D1E8CFAD
:1004A000512C312C20E02032A0F48B3269F030F452
:1004B000803259F0833269F420612CC08D3239F0DA
:1004C000803339F4216026C02260246023C0286074
:1004D00021C027FD27C030ED380F3A3078F426FFD1
:1004E00006C0FAE05F9E300D1124532E13C08AE03F
:1004F000389E300D1124332E20620CC08E3221F430
:1005000026FD5FC1206406C08C3611F4206802C04D
:10051000883641F4F60193FD859193FF81916F0137
:100520008111C1CF982F9F7D9554933028F40C5F93
:100530001F4FFFE3F9830DC0833631F0833771F02D
:10054000833509F057C021C0F801808189830E5F8F
:100550001F4F44244394512C540114C03801F2E03D
:100560006F0E711CF801A080B18026FF03C0652DBD
:1005700070E002C06FEF7FEFC5012C8736D12C01F0
:1005800083012C852F77222E16C03801F2E06F0EE2
:10059000711CF801A080B18026FF03C0652D70E0BA
:1005A00002C06FEF7FEFC5012C8714D12C012C8581
:1005B0002068222E830123FC19C0832D90E0481669
:1005C0005906A0F4B70180E290E01AD13A94F5CF31
:1005D000F50127FC859127FE81915F01B70190E02D
:1005E0000FD131103A94F1E04F1A510841145104DF
:1005F00079F7DEC0843611F0893631F5F80127FF2E
:1006000007C060817181828193810C5F1F4F08C098
:1006100060817181882777FD8095982F0E5F1F4F2D
:100620002F76B22E97FF09C09095809570956195B1
:100630007F4F8F4F9F4F2068B22E2AE030E0A401F9
:1006400011D1A82EA81843C0853729F42F7EB22EC9
:100650002AE030E025C0F22FF97FBF2E8F36C1F09F
:1006600018F4883579F0ADC0803719F0883721F05B
:10067000A8C02F2F2061B22EB4FE0DC08B2D846038
:10068000B82E09C024FF0AC09F2F9660B92E06C05D
:1006900028E030E005C020E130E002C020E132E097
:1006A000F801B7FE07C060817181828193810C5F80
:1006B0001F4F06C06081718180E090E00E5F1F4F88
:1006C000A401D0D0A82EA818FB2DFF77BF2EB6FE10
:1006D0000BC02B2D2E7FA51450F4B4FE0AC0B2FC23
:1006E00008C02B2D2E7E05C07A2C2B2D03C07A2C12
:1006F00001C0752C24FF0DC0FE01EA0DF11D8081A3
:10070000803311F4297E09C022FF06C073947394CC
:1007100004C0822F867809F0739423FD12C020FF55
:1007200006C05A2C731418F4530C5718732C7314F6
:1007300060F4B70180E290E02C8762D073942C853E
:10074000F6CF731410F4371801C0312C24FF11C0F8
:10075000B70180E390E02C8753D02C8522FF16C090
:1007600021FF03C088E590E002C088E790E0B70170
:100770000CC0822F867851F021FD02C080E201C0BA
:100780008BE227FD8DE2B70190E03AD0A51430F45A
:10079000B70180E390E034D05A94F8CFAA94F401E2
:1007A000EA0DF11D8081B70190E02AD0A110F6CFAB
:1007B000332009F45DCEB70180E290E021D03A9475
:1007C000F7CFF7018681978102C08FEF9FEF2C96BC
:1007D000E2E1C2C0FC010590615070400110D8F701
:1007E000809590958E0F9F1F0895FC016150704079
:1007F00001900110D8F7809590958E0F9F1F089556
:100800000F931F93CF93DF93182F092FEB018B8149
:1008100081FD03C08FEF9FEF20C082FF10C04E818B
:100820005F812C813D81421753077CF4E881F98177
:100830009F012F5F3F4F39832883108306C0E885CF
:10084000F985812F0995892B29F72E813F812F5F0B
:100850003F4F3F832E83812F902FDF91CF911F91A8
:100860000F910895FA01AA27283051F1203181F122
:10087000E8946F936E7F6E5F7F4F8F4F9F4FAF4FA8
:10088000B1E03ED0B4E03CD0670F781F891F9A1FBB
:10089000A11D680F791F8A1F911DA11D6A0F711D6F
:1008A000811D911DA11D20D009F468943F912AE07B
:1008B000269F11243019305D3193DEF6CF01089563
:1008C000462F4770405D4193B3E00FD0C9F7F6CF94
:1008D000462F4F70405D4A3318F0495D31FD40525C
:1008E000419302D0A9F7EACFB4E0A69597958795F2
:1008F00077956795BA95C9F70097610571050895D1
:100900009B01AC010A2E069457954795379527957C
:10091000BA95C9F7620F731F841F951FA01D089514
:100920002F923F924F925F926F927F928F929F92FF
:10093000AF92BF92CF92DF92EF92FF920F931F93ED
:10094000CF93DF93CDB7DEB7CA1BDB0B0FB6F8949E
:10095000DEBF0FBECDBF09942A88398848885F84DE
:100960006E847D848C849B84AA84B984C884DF804F
:10097000EE80FD800C811B81AA81B981CE0FD11D33
:100980000FB6F894DEBF0FBECDBFED010895F89409
:02099000FFCF97
:100992003C002C01777977616C6F6E790077796A08
:1009A200657A647A6100776A657A647A6100706F49
:1009B20073746F6A007A616D6B0025690054616B14
:0209C200000033
:00000001FF
